{
  "contractName": "GamesOnStakes",
  "abi": [
    {
      "constant": true,
      "inputs": [],
      "name": "timeout",
      "outputs": [
        {
          "name": "",
          "type": "uint16"
        }
      ],
      "payable": false,
      "stateMutability": "view",
      "type": "function"
    },
    {
      "inputs": [
        {
          "name": "givenTimeout",
          "type": "uint16"
        }
      ],
      "payable": false,
      "stateMutability": "nonpayable",
      "type": "constructor"
    },
    {
      "payable": true,
      "stateMutability": "payable",
      "type": "fallback"
    },
    {
      "anonymous": false,
      "inputs": [
        {
          "indexed": true,
          "name": "gameIdx",
          "type": "uint32"
        }
      ],
      "name": "GameCreated",
      "type": "event"
    },
    {
      "anonymous": false,
      "inputs": [
        {
          "indexed": true,
          "name": "gameIdx",
          "type": "uint32"
        }
      ],
      "name": "GameAccepted",
      "type": "event"
    },
    {
      "anonymous": false,
      "inputs": [
        {
          "indexed": true,
          "name": "gameIdx",
          "type": "uint32"
        }
      ],
      "name": "GameStarted",
      "type": "event"
    },
    {
      "anonymous": false,
      "inputs": [
        {
          "indexed": true,
          "name": "gameIdx",
          "type": "uint32"
        }
      ],
      "name": "PositionMarked",
      "type": "event"
    },
    {
      "anonymous": false,
      "inputs": [
        {
          "indexed": true,
          "name": "gameIdx",
          "type": "uint32"
        }
      ],
      "name": "GameEnded",
      "type": "event"
    },
    {
      "constant": true,
      "inputs": [],
      "name": "getOpenGames",
      "outputs": [
        {
          "name": "",
          "type": "uint32[]"
        }
      ],
      "payable": false,
      "stateMutability": "view",
      "type": "function"
    },
    {
      "constant": true,
      "inputs": [
        {
          "name": "gameIdx",
          "type": "uint32"
        }
      ],
      "name": "getGameInfo",
      "outputs": [
        {
          "name": "cells",
          "type": "uint8[9]"
        },
        {
          "name": "status",
          "type": "uint8"
        },
        {
          "name": "amount",
          "type": "uint256"
        },
        {
          "name": "nick1",
          "type": "string"
        },
        {
          "name": "nick2",
          "type": "string"
        }
      ],
      "payable": false,
      "stateMutability": "view",
      "type": "function"
    },
    {
      "constant": true,
      "inputs": [
        {
          "name": "gameIdx",
          "type": "uint32"
        }
      ],
      "name": "getGameTimestamps",
      "outputs": [
        {
          "name": "lastTransaction1",
          "type": "uint256"
        },
        {
          "name": "lastTransaction2",
          "type": "uint256"
        }
      ],
      "payable": false,
      "stateMutability": "view",
      "type": "function"
    },
    {
      "constant": true,
      "inputs": [
        {
          "name": "gameIdx",
          "type": "uint32"
        }
      ],
      "name": "getGamePlayers",
      "outputs": [
        {
          "name": "player1",
          "type": "address"
        },
        {
          "name": "player2",
          "type": "address"
        }
      ],
      "payable": false,
      "stateMutability": "view",
      "type": "function"
    },
    {
      "constant": false,
      "inputs": [
        {
          "name": "randomNumberHash",
          "type": "bytes32"
        },
        {
          "name": "nick",
          "type": "string"
        }
      ],
      "name": "createGame",
      "outputs": [
        {
          "name": "gameIdx",
          "type": "uint32"
        }
      ],
      "payable": true,
      "stateMutability": "payable",
      "type": "function"
    },
    {
      "constant": false,
      "inputs": [
        {
          "name": "gameIdx",
          "type": "uint32"
        },
        {
          "name": "randomNumber",
          "type": "uint8"
        },
        {
          "name": "nick",
          "type": "string"
        }
      ],
      "name": "acceptGame",
      "outputs": [],
      "payable": true,
      "stateMutability": "payable",
      "type": "function"
    },
    {
      "constant": false,
      "inputs": [
        {
          "name": "gameIdx",
          "type": "uint32"
        },
        {
          "name": "revealedRandomNumber",
          "type": "uint8"
        },
        {
          "name": "revealedSalt",
          "type": "string"
        }
      ],
      "name": "confirmGame",
      "outputs": [],
      "payable": false,
      "stateMutability": "nonpayable",
      "type": "function"
    },
    {
      "constant": false,
      "inputs": [
        {
          "name": "gameIdx",
          "type": "uint32"
        },
        {
          "name": "cell",
          "type": "uint8"
        }
      ],
      "name": "markPosition",
      "outputs": [],
      "payable": false,
      "stateMutability": "nonpayable",
      "type": "function"
    },
    {
      "constant": false,
      "inputs": [
        {
          "name": "gameIdx",
          "type": "uint32"
        }
      ],
      "name": "withdraw",
      "outputs": [],
      "payable": false,
      "stateMutability": "nonpayable",
      "type": "function"
    },
    {
      "constant": true,
      "inputs": [
        {
          "name": "randomNumber",
          "type": "uint8"
        },
        {
          "name": "salt",
          "type": "string"
        }
      ],
      "name": "saltedHash",
      "outputs": [
        {
          "name": "",
          "type": "bytes32"
        }
      ],
      "payable": false,
      "stateMutability": "pure",
      "type": "function"
    }
  ],
  "bytecode": "0x60806040523480156200001157600080fd5b50604051602080620036ef833981018060405260208110156200003357600080fd5b810190808051906020019092919050505060008161ffff1614620000745780600260046101000a81548161ffff021916908361ffff16021790555062000094565b610258600260046101000a81548161ffff021916908361ffff1602179055505b5061364a80620000a56000396000f3fe60806040526004361061009c5760003560e01c806370dea79a1161006457806370dea79a14610464578063848a235114610497578063a97d07b014610600578063aa9224cd146106d8578063b60d0e9b14610719578063e75d7e3e146107675761009c565b80630cc99ca2146100a1578063227193051461015557806343b95d7b1461023a578063620b478d1461031f5780636474c5b81461037b575b600080fd5b3480156100ad57600080fd5b506100e0600480360360208110156100c457600080fd5b81019080803563ffffffff1690602001909291905050506107d3565b604051808373ffffffffffffffffffffffffffffffffffffffff1673ffffffffffffffffffffffffffffffffffffffff1681526020018273ffffffffffffffffffffffffffffffffffffffff1673ffffffffffffffffffffffffffffffffffffffff1681526020019250505060405180910390f35b6102186004803603604081101561016b57600080fd5b81019080803590602001909291908035906020019064010000000081111561019257600080fd5b8201836020820111156101a457600080fd5b803590602001918460018302840111640100000000831117156101c657600080fd5b91908080601f016020809104026020016040519081016040528093929190818152602001838380828437600081840152601f19601f82011690508083019250505050505050919291929050505061087f565b604051808263ffffffff1663ffffffff16815260200191505060405180910390f35b34801561024657600080fd5b5061031d6004803603606081101561025d57600080fd5b81019080803563ffffffff169060200190929190803560ff1690602001909291908035906020019064010000000081111561029757600080fd5b8201836020820111156102a957600080fd5b803590602001918460018302840111640100000000831117156102cb57600080fd5b91908080601f016020809104026020016040519081016040528093929190818152602001838380828437600081840152601f19601f820116905080830192505050505050509192919290505050610b49565b005b34801561032b57600080fd5b5061035e6004803603602081101561034257600080fd5b81019080803563ffffffff169060200190929190505050610ecb565b604051808381526020018281526020019250505060405180910390f35b34801561038757600080fd5b5061044e6004803603604081101561039e57600080fd5b81019080803560ff169060200190929190803590602001906401000000008111156103c857600080fd5b8201836020820111156103da57600080fd5b803590602001918460018302840111640100000000831117156103fc57600080fd5b91908080601f016020809104026020016040519081016040528093929190818152602001838380828437600081840152601f19601f820116905080830192505050505050509192919290505050610f37565b6040518082815260200191505060405180910390f35b34801561047057600080fd5b5061047961103e565b604051808261ffff1661ffff16815260200191505060405180910390f35b3480156104a357600080fd5b506104d6600480360360208110156104ba57600080fd5b81019080803563ffffffff169060200190929190505050611052565b6040518086600960200280838360005b838110156105015780820151818401526020810190506104e6565b505050509050018560ff1660ff1681526020018481526020018060200180602001838103835285818151815260200191508051906020019080838360005b8381101561055a57808201518184015260208101905061053f565b50505050905090810190601f1680156105875780820380516001836020036101000a031916815260200191505b50838103825284818151815260200191508051906020019080838360005b838110156105c05780820151818401526020810190506105a5565b50505050905090810190601f1680156105ed5780820380516001836020036101000a031916815260200191505b5097505050505050505060405180910390f35b6106d66004803603606081101561061657600080fd5b81019080803563ffffffff169060200190929190803560ff1690602001909291908035906020019064010000000081111561065057600080fd5b82018360208201111561066257600080fd5b8035906020019184600183028401116401000000008311171561068457600080fd5b91908080601f016020809104026020016040519081016040528093929190818152602001838380828437600081840152601f19601f8201169050808301925050505050505091929192905050506112e3565b005b3480156106e457600080fd5b50610717600480360360208110156106fb57600080fd5b81019080803563ffffffff1690602001909291905050506116f9565b005b34801561072557600080fd5b506107656004803603604081101561073c57600080fd5b81019080803563ffffffff169060200190929190803560ff169060200190929190505050612875565b005b34801561077357600080fd5b5061077c613404565b6040518080602001828103825283818151815260200191508051906020019060200280838360005b838110156107bf5780820151818401526020810190506107a4565b505050509050019250505060405180910390f35b600080600160008463ffffffff1663ffffffff16815260200190815260200160002060040160006002811061080457fe5b0160009054906101000a900473ffffffffffffffffffffffffffffffffffffffff16600160008563ffffffff1663ffffffff16815260200190815260200160002060040160016002811061085457fe5b0160009054906101000a900473ffffffffffffffffffffffffffffffffffffffff1691509150915091565b60008063ffffffff16600260009054906101000a900463ffffffff1663ffffffff16116108ab57600080fd5b60008054905060016000600260009054906101000a900463ffffffff1663ffffffff1663ffffffff16815260200190815260200160002060000160006101000a81548163ffffffff021916908363ffffffff1602179055508260016000600260009054906101000a900463ffffffff1663ffffffff1663ffffffff168152602001908152602001600020600b01819055503460016000600260009054906101000a900463ffffffff1663ffffffff1663ffffffff168152602001908152602001600020600301819055508160016000600260009054906101000a900463ffffffff1663ffffffff1663ffffffff1681526020019081526020016000206006016000600281106109b657fe5b0190805190602001906109ca929190613488565b503360016000600260009054906101000a900463ffffffff1663ffffffff1663ffffffff168152602001908152602001600020600401600060028110610a0c57fe5b0160006101000a81548173ffffffffffffffffffffffffffffffffffffffff021916908373ffffffffffffffffffffffffffffffffffffffff1602179055506000600260009054906101000a900463ffffffff16908060018154018082558091505090600182039060005260206000209060089182820401919006600402909192909190916101000a81548163ffffffff021916908363ffffffff16021790555050600260009054906101000a900463ffffffff169050600260009054906101000a900463ffffffff1663ffffffff167fe086303ca1b48642b0b5ba69da2571f5e80c0316d829fef02a512f986d2dd97d60405160405180910390a26002600081819054906101000a900463ffffffff168092919060010191906101000a81548163ffffffff021916908363ffffffff1602179055505092915050565b600260009054906101000a900463ffffffff1663ffffffff168363ffffffff1610610b7357600080fd5b3373ffffffffffffffffffffffffffffffffffffffff16600160008563ffffffff1663ffffffff168152602001908152602001600020600401600060028110610bb857fe5b0160009054906101000a900473ffffffffffffffffffffffffffffffffffffffff1673ffffffffffffffffffffffffffffffffffffffff1614610bfa57600080fd5b600073ffffffffffffffffffffffffffffffffffffffff16600160008563ffffffff1663ffffffff168152602001908152602001600020600401600160028110610c4057fe5b0160009054906101000a900473ffffffffffffffffffffffffffffffffffffffff1673ffffffffffffffffffffffffffffffffffffffff161415610c8357600080fd5b6000600160008563ffffffff1663ffffffff16815260200190815260200160002060020160009054906101000a900460ff1660ff1614610cc257600080fd5b6000610cce8383610f37565b9050600160008563ffffffff1663ffffffff168152602001908152602001600020600b01548114610d6e57600c600160008663ffffffff1663ffffffff16815260200190815260200160002060020160006101000a81548160ff021916908360ff1602179055508363ffffffff167f03062237e6595ec25417489012bbe42a5d38814b6f0a918f13c18988b580b60060405160405180910390a250610ec6565b42600160008663ffffffff1663ffffffff168152602001908152602001600020600801600060028110610d9d57fe5b0181905550600080600160008763ffffffff1663ffffffff168152602001908152602001600020600c0160009054906101000a900460ff1685181660ff161415610e545760018060008663ffffffff1663ffffffff16815260200190815260200160002060020160006101000a81548160ff021916908360ff1602179055508363ffffffff167fe6aebc56b3bafc90ff9fcf8f838e304f2b308c7b3cc63fde56fb1806a03968fe60405160405180910390a2610ec4565b6002600160008663ffffffff1663ffffffff16815260200190815260200160002060020160006101000a81548160ff021916908360ff1602179055508363ffffffff167fe6aebc56b3bafc90ff9fcf8f838e304f2b308c7b3cc63fde56fb1806a03968fe60405160405180910390a25b505b505050565b600080600160008463ffffffff1663ffffffff168152602001908152602001600020600801600060028110610efc57fe5b0154600160008563ffffffff1663ffffffff168152602001908152602001600020600801600160028110610f2c57fe5b015491509150915091565b600073__StringSupport_________________________636474c5b884846040518363ffffffff1660e01b8152600401808360ff1660ff16815260200180602001828103825283818151815260200191508051906020019080838360005b83811015610fb0578082015181840152602081019050610f95565b50505050905090810190601f168015610fdd5780820380516001836020036101000a031916815260200191505b50935050505060206040518083038186803b158015610ffb57600080fd5b505af415801561100f573d6000803e3d6000fd5b505050506040513d602081101561102557600080fd5b8101908080519060200190929190505050905092915050565b600260049054906101000a900461ffff1681565b61105a613508565b600080606080600160008763ffffffff1663ffffffff168152602001908152602001600020600101600160008863ffffffff1663ffffffff16815260200190815260200160002060020160009054906101000a900460ff16600160008963ffffffff1663ffffffff16815260200190815260200160002060030154600160008a63ffffffff1663ffffffff16815260200190815260200160002060060160006002811061110357fe5b01600160008b63ffffffff1663ffffffff16815260200190815260200160002060060160016002811061113257fe5b0184600980602002604051908101604052809291908260098015611191576020028201916000905b82829054906101000a900460ff1660ff168152602001906001019060208260000104928301926001038202915080841161115a5790505b50505050509450818054600181600116156101000203166002900480601f01602080910402602001604051908101604052809291908181526020018280546001816001161561010002031660029004801561122d5780601f106112025761010080835404028352916020019161122d565b820191906000526020600020905b81548152906001019060200180831161121057829003601f168201915b50505050509150808054600181600116156101000203166002900480601f0160208091040260200160405190810160405280929190818152602001828054600181600116156101000203166002900480156112c95780601f1061129e576101008083540402835291602001916112c9565b820191906000526020600020905b8154815290600101906020018083116112ac57829003601f168201915b505050505090509450945094509450945091939590929450565b600260009054906101000a900463ffffffff1663ffffffff168363ffffffff161061130d57600080fd5b600073ffffffffffffffffffffffffffffffffffffffff16600160008563ffffffff1663ffffffff16815260200190815260200160002060040160006002811061135357fe5b0160009054906101000a900473ffffffffffffffffffffffffffffffffffffffff1673ffffffffffffffffffffffffffffffffffffffff16141561139657600080fd5b600160008463ffffffff1663ffffffff1681526020019081526020016000206003015434146113c457600080fd5b600073ffffffffffffffffffffffffffffffffffffffff16600160008563ffffffff1663ffffffff16815260200190815260200160002060040160016002811061140a57fe5b0160009054906101000a900473ffffffffffffffffffffffffffffffffffffffff1673ffffffffffffffffffffffffffffffffffffffff161461144c57600080fd5b6000600160008563ffffffff1663ffffffff16815260200190815260200160002060020160009054906101000a900460ff1660ff161461148b57600080fd5b81600160008563ffffffff1663ffffffff168152602001908152602001600020600c0160006101000a81548160ff021916908360ff16021790555080600160008563ffffffff1663ffffffff1681526020019081526020016000206006016001600281106114f557fe5b019080519060200190611509929190613488565b5033600160008563ffffffff1663ffffffff16815260200190815260200160002060040160016002811061153957fe5b0160006101000a81548173ffffffffffffffffffffffffffffffffffffffff021916908373ffffffffffffffffffffffffffffffffffffffff16021790555042600160008563ffffffff1663ffffffff1681526020019081526020016000206008016001600281106115a757fe5b01819055508263ffffffff167f14badac9165592fee02ed823bed7496693740911a7624d59908014ecd4736ab760405160405180910390a26000600160008563ffffffff1663ffffffff16815260200190815260200160002060000160009054906101000a900463ffffffff1690506000806001600080549050038154811061162c57fe5b90600052602060002090600891828204019190066004029054906101000a900463ffffffff1690508060008363ffffffff168154811061166857fe5b90600052602060002090600891828204019190066004026101000a81548163ffffffff021916908363ffffffff16021790555081600160008363ffffffff1663ffffffff16815260200190815260200160002060000160006101000a81548163ffffffff021916908363ffffffff16021790555060008054809190600190036116f1919061352b565b505050505050565b600260009054906101000a900463ffffffff1663ffffffff168163ffffffff161061172357600080fd5b6000600160008363ffffffff1663ffffffff16815260200190815260200160002060030154116117bb576040517f08c379a000000000000000000000000000000000000000000000000000000000815260040180806020018281038252601b8152602001807f5468652062657420616d6f756e742063616e206e6f742062652030000000000081525060200191505060405180910390fd5b6000600160008363ffffffff1663ffffffff16815260200190815260200160002060020160009054906101000a900460ff16905060008160ff161415611d09573373ffffffffffffffffffffffffffffffffffffffff16600160008463ffffffff1663ffffffff16815260200190815260200160002060040160006002811061184057fe5b0160009054906101000a900473ffffffffffffffffffffffffffffffffffffffff1673ffffffffffffffffffffffffffffffffffffffff16146118eb576040517f08c379a00000000000000000000000000000000000000000000000000000000081526004018080602001828103825260108152602001807f5468652047616d652063726561746f720000000000000000000000000000000081525060200191505060405180910390fd5b600073ffffffffffffffffffffffffffffffffffffffff16600160008463ffffffff1663ffffffff16815260200190815260200160002060040160016002811061193157fe5b0160009054906101000a900473ffffffffffffffffffffffffffffffffffffffff1673ffffffffffffffffffffffffffffffffffffffff16146119dc576040517f08c379a000000000000000000000000000000000000000000000000000000000815260040180806020018281038252600d8152602001807f546865206775657374207462640000000000000000000000000000000000000081525060200191505060405180910390fd5b600260049054906101000a900461ffff1661ffff16600160008463ffffffff1663ffffffff168152602001908152602001600020600801600060028110611a1f57fe5b0154420311611a96576040517f08c379a00000000000000000000000000000000000000000000000000000000081526004018080602001828103825260138152602001807f47616d65206973207374696c6c20616c6976650000000000000000000000000081525060200191505060405180910390fd5b60018060008463ffffffff1663ffffffff168152602001908152602001600020600a01600060028110611ac557fe5b602091828204019190066101000a81548160ff021916908315150217905550600a600160008463ffffffff1663ffffffff16815260200190815260200160002060020160006101000a81548160ff021916908360ff1602179055503373ffffffffffffffffffffffffffffffffffffffff166108fc600160008563ffffffff1663ffffffff168152602001908152602001600020600301549081150290604051600060405180830381858888f19350505050158015611b88573d6000803e3d6000fd5b508163ffffffff167f03062237e6595ec25417489012bbe42a5d38814b6f0a918f13c18988b580b60060405160405180910390a26000600160008463ffffffff1663ffffffff16815260200190815260200160002060000160009054906101000a900463ffffffff16905060008060016000805490500381548110611c0957fe5b90600052602060002090600891828204019190066004029054906101000a900463ffffffff1690508060008363ffffffff1681548110611c4557fe5b90600052602060002090600891828204019190066004026101000a81548163ffffffff021916908363ffffffff16021790555081600160008363ffffffff1663ffffffff16815260200190815260200160002060000160006101000a81548163ffffffff021916908363ffffffff1602179055506000805480919060019003611cce919061352b565b508363ffffffff167f03062237e6595ec25417489012bbe42a5d38814b6f0a918f13c18988b580b60060405160405180910390a25050612871565b60018160ff161415611f84573373ffffffffffffffffffffffffffffffffffffffff16600160008463ffffffff1663ffffffff168152602001908152602001600020600401600160028110611d5a57fe5b0160009054906101000a900473ffffffffffffffffffffffffffffffffffffffff1673ffffffffffffffffffffffffffffffffffffffff1614611d9c57600080fd5b600260049054906101000a900461ffff1661ffff16600160008463ffffffff1663ffffffff168152602001908152602001600020600801600060028110611ddf57fe5b0154420311611e56576040517f08c379a00000000000000000000000000000000000000000000000000000000081526004018080602001828103825260138152602001807f47616d65206973207374696c6c20616c6976650000000000000000000000000081525060200191505060405180910390fd5b60018060008463ffffffff1663ffffffff168152602001908152602001600020600a01600160028110611e8557fe5b602091828204019190066101000a81548160ff021916908315150217905550600c600160008463ffffffff1663ffffffff16815260200190815260200160002060020160006101000a81548160ff021916908360ff1602179055503373ffffffffffffffffffffffffffffffffffffffff166108fc6002600160008663ffffffff1663ffffffff16815260200190815260200160002060030154029081150290604051600060405180830381858888f19350505050158015611f4b573d6000803e3d6000fd5b508163ffffffff167f03062237e6595ec25417489012bbe42a5d38814b6f0a918f13c18988b580b60060405160405180910390a2612870565b60028160ff1614156121ff573373ffffffffffffffffffffffffffffffffffffffff16600160008463ffffffff1663ffffffff168152602001908152602001600020600401600060028110611fd557fe5b0160009054906101000a900473ffffffffffffffffffffffffffffffffffffffff1673ffffffffffffffffffffffffffffffffffffffff161461201757600080fd5b600260049054906101000a900461ffff1661ffff16600160008463ffffffff1663ffffffff16815260200190815260200160002060080160006002811061205a57fe5b01544203116120d1576040517f08c379a00000000000000000000000000000000000000000000000000000000081526004018080602001828103825260138152602001807f47616d65206973207374696c6c20616c6976650000000000000000000000000081525060200191505060405180910390fd5b60018060008463ffffffff1663ffffffff168152602001908152602001600020600a0160016002811061210057fe5b602091828204019190066101000a81548160ff021916908315150217905550600b600160008463ffffffff1663ffffffff16815260200190815260200160002060020160006101000a81548160ff021916908360ff1602179055503373ffffffffffffffffffffffffffffffffffffffff166108fc6002600160008663ffffffff1663ffffffff16815260200190815260200160002060030154029081150290604051600060405180830381858888f193505050501580156121c6573d6000803e3d6000fd5b508163ffffffff167f03062237e6595ec25417489012bbe42a5d38814b6f0a918f13c18988b580b60060405160405180910390a261286f565b600a8160ff161415612527573373ffffffffffffffffffffffffffffffffffffffff16600160008463ffffffff1663ffffffff16815260200190815260200160002060040160006002811061225057fe5b0160009054906101000a900473ffffffffffffffffffffffffffffffffffffffff1673ffffffffffffffffffffffffffffffffffffffff16141561239857600160008363ffffffff1663ffffffff168152602001908152602001600020600a016000600281106122bc57fe5b602091828204019190069054906101000a900460ff16156122dc57600080fd5b60018060008463ffffffff1663ffffffff168152602001908152602001600020600a0160006002811061230b57fe5b602091828204019190066101000a81548160ff0219169083151502179055503373ffffffffffffffffffffffffffffffffffffffff166108fc600160008563ffffffff1663ffffffff168152602001908152602001600020600301549081150290604051600060405180830381858888f19350505050158015612392573d6000803e3d6000fd5b50612522565b3373ffffffffffffffffffffffffffffffffffffffff16600160008463ffffffff1663ffffffff1681526020019081526020016000206004016001600281106123dd57fe5b0160009054906101000a900473ffffffffffffffffffffffffffffffffffffffff1673ffffffffffffffffffffffffffffffffffffffff16141561252157600160008363ffffffff1663ffffffff168152602001908152602001600020600a0160016002811061244957fe5b602091828204019190069054906101000a900460ff161561246957600080fd5b60018060008463ffffffff1663ffffffff168152602001908152602001600020600a0160016002811061249857fe5b602091828204019190066101000a81548160ff0219169083151502179055503373ffffffffffffffffffffffffffffffffffffffff166108fc600160008563ffffffff1663ffffffff168152602001908152602001600020600301549081150290604051600060405180830381858888f1935050505015801561251f573d6000803e3d6000fd5b505b5b61286e565b600b8160ff1614156126c7573373ffffffffffffffffffffffffffffffffffffffff16600160008463ffffffff1663ffffffff16815260200190815260200160002060040160006002811061257857fe5b0160009054906101000a900473ffffffffffffffffffffffffffffffffffffffff1673ffffffffffffffffffffffffffffffffffffffff16146125ba57600080fd5b600160008363ffffffff1663ffffffff168152602001908152602001600020600a016000600281106125e857fe5b602091828204019190069054906101000a900460ff161561260857600080fd5b60018060008463ffffffff1663ffffffff168152602001908152602001600020600a0160006002811061263757fe5b602091828204019190066101000a81548160ff0219169083151502179055503373ffffffffffffffffffffffffffffffffffffffff166108fc6002600160008663ffffffff1663ffffffff16815260200190815260200160002060030154029081150290604051600060405180830381858888f193505050501580156126c1573d6000803e3d6000fd5b5061286d565b600c8160ff161415612867573373ffffffffffffffffffffffffffffffffffffffff16600160008463ffffffff1663ffffffff16815260200190815260200160002060040160016002811061271857fe5b0160009054906101000a900473ffffffffffffffffffffffffffffffffffffffff1673ffffffffffffffffffffffffffffffffffffffff161461275a57600080fd5b600160008363ffffffff1663ffffffff168152602001908152602001600020600a0160016002811061278857fe5b602091828204019190069054906101000a900460ff16156127a857600080fd5b60018060008463ffffffff1663ffffffff168152602001908152602001600020600a016001600281106127d757fe5b602091828204019190066101000a81548160ff0219169083151502179055503373ffffffffffffffffffffffffffffffffffffffff166108fc6002600160008663ffffffff1663ffffffff16815260200190815260200160002060030154029081150290604051600060405180830381858888f19350505050158015612861573d6000803e3d6000fd5b5061286c565b600080fd5b5b5b5b5b5b5050565b600260009054906101000a900463ffffffff1663ffffffff168263ffffffff161061289f57600080fd5b60088160ff1611156128fc576040517f08c379a00000000000000000000000000000000000000000000000000000000081526004018080602001828103825260418152602001806135de6041913960600191505060405180910390fd5b6000600160008463ffffffff1663ffffffff16815260200190815260200160002060010190506000818360ff166009811061293357fe5b602091828204019190069054906101000a900460ff1660ff16146129bf576040517f08c379a00000000000000000000000000000000000000000000000000000000081526004018080602001828103825260198152602001807f4e6f20506c61796572206861732073746172746564207965740000000000000081525060200191505060405180910390fd5b60018060008563ffffffff1663ffffffff16815260200190815260200160002060020160009054906101000a900460ff1660ff161415612b04573373ffffffffffffffffffffffffffffffffffffffff16600160008563ffffffff1663ffffffff168152602001908152602001600020600401600060028110612a3e57fe5b0160009054906101000a900473ffffffffffffffffffffffffffffffffffffffff1673ffffffffffffffffffffffffffffffffffffffff1614612acc576040517f08c379a000000000000000000000000000000000000000000000000000000000815260040180806020018281038252602d81526020018061358b602d913960400191505060405180910390fd5b8263ffffffff167fc8ca200b7b7de6800e78d298d7683d619cb11916108a189d62239ccd948ed3a160405160405180910390a2612c50565b6002600160008563ffffffff1663ffffffff16815260200190815260200160002060020160009054906101000a900460ff1660ff161415612c4a573373ffffffffffffffffffffffffffffffffffffffff16600160008563ffffffff1663ffffffff168152602001908152602001600020600401600160028110612b8457fe5b0160009054906101000a900473ffffffffffffffffffffffffffffffffffffffff1673ffffffffffffffffffffffffffffffffffffffff1614612c12576040517f08c379a00000000000000000000000000000000000000000000000000000000081526004018080602001828103825260268152602001806135b86026913960400191505060405180910390fd5b8263ffffffff167fc8ca200b7b7de6800e78d298d7683d619cb11916108a189d62239ccd948ed3a160405160405180910390a2612c4f565b600080fd5b5b8263ffffffff167fc8ca200b7b7de6800e78d298d7683d619cb11916108a189d62239ccd948ed3a160405160405180910390a2600081600260098110612c9257fe5b602091828204019190069054906101000a900460ff1682600160098110612cb557fe5b602091828204019190069054906101000a900460ff1683600060098110612cd857fe5b602091828204019190069054906101000a900460ff16161660ff16141580612d6e5750600081600560098110612d0a57fe5b602091828204019190069054906101000a900460ff1682600460098110612d2d57fe5b602091828204019190069054906101000a900460ff1683600360098110612d5057fe5b602091828204019190069054906101000a900460ff16161660ff1614155b80612de75750600081600860098110612d8357fe5b602091828204019190069054906101000a900460ff1682600760098110612da657fe5b602091828204019190069054906101000a900460ff1683600660098110612dc957fe5b602091828204019190069054906101000a900460ff16161660ff1614155b80612e605750600081600660098110612dfc57fe5b602091828204019190069054906101000a900460ff1682600360098110612e1f57fe5b602091828204019190069054906101000a900460ff1683600060098110612e4257fe5b602091828204019190069054906101000a900460ff16161660ff1614155b80612ed95750600081600760098110612e7557fe5b602091828204019190069054906101000a900460ff1682600460098110612e9857fe5b602091828204019190069054906101000a900460ff1683600160098110612ebb57fe5b602091828204019190069054906101000a900460ff16161660ff1614155b80612f525750600081600860098110612eee57fe5b602091828204019190069054906101000a900460ff1682600560098110612f1157fe5b602091828204019190069054906101000a900460ff1683600260098110612f3457fe5b602091828204019190069054906101000a900460ff16161660ff1614155b80612fcb5750600081600860098110612f6757fe5b602091828204019190069054906101000a900460ff1682600460098110612f8a57fe5b602091828204019190069054906101000a900460ff1683600060098110612fad57fe5b602091828204019190069054906101000a900460ff16161660ff1614155b806130445750600081600660098110612fe057fe5b602091828204019190069054906101000a900460ff168260046009811061300357fe5b602091828204019190069054906101000a900460ff168360026009811061302657fe5b602091828204019190069054906101000a900460ff16161660ff1614155b156130e357808260ff166009811061305857fe5b602091828204019190069054906101000a900460ff16600a01600160008563ffffffff1663ffffffff16815260200190815260200160002060020160006101000a81548160ff021916908360ff1602179055508263ffffffff167f03062237e6595ec25417489012bbe42a5d38814b6f0a918f13c18988b580b60060405160405180910390a26133ff565b6000816000600981106130f257fe5b602091828204019190069054906101000a900460ff1660ff161415801561313f575060008160016009811061312357fe5b602091828204019190069054906101000a900460ff1660ff1614155b8015613171575060008160026009811061315557fe5b602091828204019190069054906101000a900460ff1660ff1614155b80156131a3575060008160036009811061318757fe5b602091828204019190069054906101000a900460ff1660ff1614155b80156131d557506000816004600981106131b957fe5b602091828204019190069054906101000a900460ff1660ff1614155b801561320757506000816005600981106131eb57fe5b602091828204019190069054906101000a900460ff1660ff1614155b8015613239575060008160066009811061321d57fe5b602091828204019190069054906101000a900460ff1660ff1614155b801561326b575060008160076009811061324f57fe5b602091828204019190069054906101000a900460ff1660ff1614155b801561329d575060008160086009811061328157fe5b602091828204019190069054906101000a900460ff1660ff1614155b1561331657600a600160008563ffffffff1663ffffffff16815260200190815260200160002060020160006101000a81548160ff021916908360ff1602179055508263ffffffff167f03062237e6595ec25417489012bbe42a5d38814b6f0a918f13c18988b580b60060405160405180910390a26133fe565b6001818360ff166009811061332757fe5b602091828204019190069054906101000a900460ff1660ff161415613387576002600160008563ffffffff1663ffffffff16815260200190815260200160002060020160006101000a81548160ff021916908360ff1602179055506133fd565b6002818360ff166009811061339857fe5b602091828204019190069054906101000a900460ff1660ff1614156133f75760018060008563ffffffff1663ffffffff16815260200190815260200160002060020160006101000a81548160ff021916908360ff1602179055506133fc565b600080fd5b5b5b5b505050565b6060600080548060200260200160405190810160405280929190818152602001828054801561347e57602002820191906000526020600020906000905b82829054906101000a900463ffffffff1663ffffffff16815260200190600401906020826003010492830192600103820291508084116134415790505b5050505050905090565b828054600181600116156101000203166002900490600052602060002090601f016020900481019282601f106134c957805160ff19168380011785556134f7565b828001600101855582156134f7579182015b828111156134f65782518255916020019190600101906134db565b5b5090506135049190613565565b5090565b604051806101200160405280600990602082028038833980820191505090505090565b81548183558181111561356057600701600890048160070160089004836000526020600020918201910161355f9190613565565b5b505050565b61358791905b8082111561358357600081600090555060010161356b565b5090565b9056fe506f736974696f6e206d61726b6564212047616d652063726561746f722069732074686520706c617965722031506f736974696f6e206d61726b6564212047756573742069732074686520706c61796572203154686520706172616d65746572206d75737420636f6e7461696e20612076616c7565206c657373207468616e206d61782063656c6c2076616c7565206c696d6974a165627a7a72305820222bf9c9b2f0c1ea6e429912dbf860a9eda4f28c1ea20b96444e92ef1ffa78b60029",
  "source": "pragma solidity ^0.5.0;\n\n ///@title fun.fair _Consensys-bootcamp-final-project\n ///@author Sachin Mittal\n ///@notice Contract is built following the smart contract design pattern\n ///@dev StringSupport library is used for salted hash (commitment scheme)\n\n import \"./StringSupport.sol\";\n\ncontract GamesOnStakes {\n\n///@title Contract properties - Monolithic, experimental, efficient (Use of library)\n///@dev For any queries, generate an issue, or email at \" \"\n\n\n// * Ethereum smart contract, deployed at \"given address\". */\n\n/// *** STATE VARIABLES \n\n\nstruct Game \n  {\n\n    \n    uint32 index;            // position in openGames[]\n    uint8[9] cells;  \n\n    // [123 | 456 | 789] containing [0 => nobody, 1 => X, 2 => O]    \n\n    // 0 => not started, 1 => player 1, 2 => player 2\n    // 10 => draw, 11 => player 1 wins, 12 => player 2 wins\n\n    uint8 status;                   \n    uint amount;                       \n\n    address[2] players;                 // Player's array\n    string[2] nicks;                    \n    uint[2] lastTransactions;           \n    bool[2] withdrawn;                  \n\n    bytes32 creatorHash;                   \n    uint8 guestRandomNumber;\n  }\n\n    uint32[] openGames;                    // list of active games' id's\n    mapping(uint32 => Game) gamesData;     // data containers\n\n    uint32 nextGameIdx;\n    uint16 public timeout;                  // Game Timeout\n\n    // TODO: Apply limit!\n\n    constructor(uint16 givenTimeout) public {\n      if(givenTimeout!= 0){\n          timeout = givenTimeout;    \n      }\n      else{\n        timeout = 10 minutes;\n      }\n    }\n\n    // EVENTS\n\n    event GameCreated(uint32 indexed gameIdx);\n    event GameAccepted(uint32 indexed gameIdx);\n    event GameStarted(uint32 indexed gameIdx);\n    \n    event PositionMarked(uint32 indexed gameIdx);\n    event GameEnded(uint32 indexed gameIdx);\n\n\n    // Member Functions\n\n    //Callable \n\n    function getOpenGames() \n    public \n    view \n    returns (uint32[] memory){\n      return openGames;\n    }\n\n\n    function getGameInfo(uint32 gameIdx)\n    public\n    view \n    returns (uint8[9] memory cells, uint8 status, uint amount, string memory nick1, string memory nick2) {\n        return (\n\n        gamesData[gameIdx].cells,\n        gamesData[gameIdx].status,\n        gamesData[gameIdx].amount,\n        gamesData[gameIdx].nicks[0],\n        gamesData[gameIdx].nicks[1]\n        );\n    }\n\n    function getGameTimestamps(uint32 gameIdx) \n    public \n    view \n  returns (uint lastTransaction1, uint lastTransaction2) {\n      return (\n          gamesData[gameIdx].lastTransactions[0],\n          gamesData[gameIdx].lastTransactions[1]\n      );\n  }\n\n    function getGamePlayers(uint32 gameIdx) \n    public \n    view \n    returns (address player1, address player2) {\n        return (\n            gamesData[gameIdx].players[0],\n            gamesData[gameIdx].players[1]\n        );\n    }\n\n\n    // Operations\n\n   function createGame(bytes32 randomNumberHash, string memory nick) \n   public \n   payable \n   returns (uint32 gameIdx) {\n     require(nextGameIdx > gameIdx);\n\n      gamesData[nextGameIdx].index = uint32(openGames.length);\n      gamesData[nextGameIdx].creatorHash = randomNumberHash;\n      gamesData[nextGameIdx].amount = msg.value;\n      gamesData[nextGameIdx].nicks[0] = nick;\n      gamesData[nextGameIdx].players[0] = msg.sender;\n      openGames.push(nextGameIdx);\n\n      gameIdx = nextGameIdx;\n      emit GameCreated(nextGameIdx);\n\n      nextGameIdx++;\n  }\n\n\n    function acceptGame(uint32 gameIdx, uint8 randomNumber, string memory nick) \n    public \n    payable {\n    \n    require(gameIdx < nextGameIdx);\n    require(gamesData[gameIdx].players[0] != address(0x0));\n    require(msg.value == gamesData[gameIdx].amount);\n    require(gamesData[gameIdx].players[1] == address(0x0));\n    require(gamesData[gameIdx].status == 0);\n\n    gamesData[gameIdx].guestRandomNumber = randomNumber;\n    gamesData[gameIdx].nicks[1] = nick;\n    gamesData[gameIdx].players[1] = msg.sender;\n    gamesData[gameIdx].lastTransactions[1] = now;\n\n    emit GameAccepted(gameIdx);\n\n    // Remove Accepted game from the openGames list\n    uint32 idxToDelete = uint32(gamesData[gameIdx].index);\n        uint32 lastOpenGameIdx = openGames[openGames.length - 1];\n        openGames[idxToDelete] = lastOpenGameIdx;\n        gamesData[lastOpenGameIdx].index = idxToDelete;\n        openGames.length--;\n\n    }\n\n    function confirmGame(uint32 gameIdx, uint8 revealedRandomNumber, string memory revealedSalt) public {\n        require(gameIdx < nextGameIdx);\n        require(gamesData[gameIdx].players[0] == msg.sender);\n        require(gamesData[gameIdx].players[1] != address(0x0));\n        require(gamesData[gameIdx].status == 0);\n\n      \n        bytes32 computedHash = saltedHash(revealedRandomNumber, revealedSalt);\n        if(computedHash != gamesData[gameIdx].creatorHash){\n            gamesData[gameIdx].status = 12;\n            emit GameEnded(gameIdx);\n            return;\n        }\n\n        gamesData[gameIdx].lastTransactions[0] = now;\n\n        // Logic for deciding turns, if even-even/odd-odd, game creator will have the first chance\n        // If odd-even, guest will have the first chance - ||Define starting player||\n        if((revealedRandomNumber ^ gamesData[gameIdx].guestRandomNumber) & 0x0 == 0){\n            gamesData[gameIdx].status = 1;\n            emit GameStarted(gameIdx);\n        }\n        else {\n            gamesData[gameIdx].status = 2;\n            emit GameStarted(gameIdx);\n        }\n    }\n\n\n    function markPosition(uint32 gameIdx, uint8 cell) public {\n\n        require(gameIdx < nextGameIdx);\n        require(cell<=8, \"The parameter must contain a value less than max cell value limit\");\n\n        uint8[9] storage cells = gamesData[gameIdx].cells;\n        require(cells[cell] == 0, \"No Player has started yet\");\n\n        if(gamesData[gameIdx].status == 1){\n          require(gamesData[gameIdx].players[0] == msg.sender, \"Position marked! Game creator is the player 1\");\n          emit PositionMarked(gameIdx);\n        }\n\n        else if(gamesData[gameIdx].status == 2){\n          require(gamesData[gameIdx].players[1] == msg.sender, \"Position marked! Guest is the player 1\");\n          emit PositionMarked(gameIdx);\n        }\n        else{\n          revert();\n        }\n\n        emit PositionMarked(gameIdx);\n\n        // Board indexes:\n        //    0 1 2\n        //    3 4 5\n        //    6 7 8\n\n        // Detect a winner:\n        // Winning probability in all rows, and columns\n\n        if((cells[0] & cells [1] & cells [2] != 0x0) || (cells[3] & cells [4] & cells [5] != 0x0) ||\n        (cells[6] & cells [7] & cells [8] != 0x0) || (cells[0] & cells [3] & cells [6] != 0x0) ||\n        (cells[1] & cells [4] & cells [7] != 0x0) || (cells[2] & cells [5] & cells [8] != 0x0) ||\n        (cells[0] & cells [4] & cells [8] != 0x0) || (cells[2] & cells [4] & cells [6] != 0x0)) {\n            // winner\n            gamesData[gameIdx].status = 10 + cells[cell];  // 11 or 12\n            emit GameEnded(gameIdx);\n        }\n\n        // All cells filled..! Hence, a draw\n        else if(cells[0] != 0x0 && cells[1] != 0x0 && cells[2] != 0x0 && \n            cells[3] != 0x0 && cells[4] != 0x0 && cells[5] != 0x0 && cells[6] != 0x0 && \n            cells[7] != 0x0 && cells[8] != 0x0) {\n            \n            gamesData[gameIdx].status = 10;\n            emit GameEnded(gameIdx);\n        }\n        else {\n            if(cells[cell] == 1){\n                gamesData[gameIdx].status = 2;\n            }\n            else if(cells[cell] == 2){\n                gamesData[gameIdx].status = 1;\n            }\n            else{\n              revert();\n            }\n        }\n    }    \n    \n\n    function withdraw(uint32 gameIdx) public {\n      require(gameIdx < nextGameIdx);\n      require(gamesData[gameIdx].amount > 0, \"The bet amount can not be 0\");\n\n      uint8 status = gamesData[gameIdx].status;\n\n      // Since status = 0, consider it ends in a draw\n      if(status == 0){\n        require(gamesData[gameIdx].players[0] == msg.sender, \"The Game creator\");\n        require(gamesData[gameIdx].players[1] == address(0x0), \"The guest tbd\");\n        require(now - gamesData[gameIdx].lastTransactions[0] > timeout, \"Game is still alive\" );\n\n         gamesData[gameIdx].withdrawn[0] = true;          // Amount withdrawn from the player\n         gamesData[gameIdx].status = 10;                  // consider it ended in draw\n         msg.sender.transfer(gamesData[gameIdx].amount);  // Amount transfered from player to the contract address\n         emit GameEnded(gameIdx);\n        // Remove this gameId from the openGames list\n        uint32 idxToDelete = uint32(gamesData[gameIdx].index);\n        uint32 lastOpenGameIdx = openGames[openGames.length - 1];\n        openGames[idxToDelete] = lastOpenGameIdx;\n        gamesData[lastOpenGameIdx].index = idxToDelete;\n        openGames.length--;\n\n        emit GameEnded(gameIdx);\n      }\n      else if(status == 1){\n        // Player2 won the claim \n        require(gamesData[gameIdx].players[1] == msg.sender);\n        require(now - gamesData[gameIdx].lastTransactions[0] > timeout, \"Game is still alive\" );\n\n        gamesData[gameIdx].withdrawn[1] = true;\n        gamesData[gameIdx].status = 12;\n        msg.sender.transfer(gamesData[gameIdx].amount * 2);\n\n         emit GameEnded(gameIdx);\n      }\n      else if(status == 2){\n        // Player1 won the game\n        require(gamesData[gameIdx].players[0] == msg.sender);\n        require(now - gamesData[gameIdx].lastTransactions[0] > timeout, \"Game is still alive\" );\n\n        gamesData[gameIdx].withdrawn[1] = true;\n        gamesData[gameIdx].status = 11;\n        msg.sender.transfer(gamesData[gameIdx].amount * 2);\n\n         emit GameEnded(gameIdx);\n      }\n      else if(status == 10){\n            if(gamesData[gameIdx].players[0] == msg.sender){\n                require(!gamesData[gameIdx].withdrawn[0]);\n\n                gamesData[gameIdx].withdrawn[0] = true;\n                msg.sender.transfer(gamesData[gameIdx].amount);\n            }\n            else if(gamesData[gameIdx].players[1] == msg.sender){\n          require(!gamesData[gameIdx].withdrawn[1]);\n\n          gamesData[gameIdx].withdrawn[1] = true;\n          msg.sender.transfer(gamesData[gameIdx].amount);\n           }\n      }\n      else if(status == 11){\n          require(gamesData[gameIdx].players[0] == msg.sender);\n          require(!gamesData[gameIdx].withdrawn[0]);\n\n          gamesData[gameIdx].withdrawn[0] = true;\n          msg.sender.transfer(gamesData[gameIdx].amount * 2);\n      }\n      else if(status == 12){\n          require(gamesData[gameIdx].players[1] == msg.sender);\n          require(!gamesData[gameIdx].withdrawn[1]);\n\n          gamesData[gameIdx].withdrawn[1] = true;\n          msg.sender.transfer(gamesData[gameIdx].amount * 2);\n      }\n      else {\n          revert();\n      }\n    }\n\n   \n\n    // Imported from library - public helper function\n    function saltedHash(uint8 randomNumber, string memory salt) public pure returns (bytes32) {\n        return StringSupport.saltedHash(randomNumber, salt);\n    }\n\n    // Fallback function\n\n    function () external payable {\n        revert();\n    }\n\n}\n\n\n\n\n\n\n\n\n\n",
  "sourcePath": "/home/kira/github/fun-fair/contracts/GamesOnStakes.sol",
  "compiler": {
    "name": "solc",
    "version": "0.5.8+commit.23d335f2.Emscripten.clang"
  },
  "schemaVersion": "3.0.11",
  "updatedAt": "2019-07-25T04:55:58.430Z",
  "devdoc": {
    "methods": {}
  },
  "userdoc": {
    "methods": {}
  }
}