{
  "contractName": "StringSupport",
  "abi": [
    {
      "constant": true,
      "inputs": [
        {
          "name": "randomNumber",
          "type": "uint8"
        },
        {
          "name": "salt",
          "type": "string"
        }
      ],
      "name": "saltedHash",
      "outputs": [
        {
          "name": "",
          "type": "bytes32"
        }
      ],
      "payable": false,
      "stateMutability": "pure",
      "type": "function"
    }
  ],
  "bytecode": "0x610324610026600b82828239805160001a60731461001957fe5b30600052607381538281f3fe73000000000000000000000000000000000000000030146080604052600436106100355760003560e01c80636474c5b81461003a575b600080fd5b6101006004803603604081101561005057600080fd5b81019080803560ff1690602001909291908035906020019064010000000081111561007a57600080fd5b82018360208201111561008c57600080fd5b803590602001918460018302840111640100000000831117156100ae57600080fd5b91908080601f016020809104026020016040519081016040528093929190818152602001838380828437600081840152601f19601f820116905080830192505050505050509192919290505050610116565b6040518082815260200191505060405180910390f35b6000606060016040519080825280601f01601f19166020018201604052801561014e5781602001600182028038833980820191505090505b5090508360f81b8160008151811061016257fe5b60200101907effffffffffffffffffffffffffffffffffffffffffffffffffffffffffffff1916908160001a90535061019b81846101ab565b8051906020012091505092915050565b6060808390506060839050606081518351016040519080825280601f01601f1916602001820160405280156101ef5781602001600182028038833980820191505090505b5090506060819050600080905060008090505b85518110156102725785818151811061021757fe5b602001015160f81c60f81b83838151811061022e57fe5b60200101907effffffffffffffffffffffffffffffffffffffffffffffffffffffffffffff1916908160001a90535081806001019250508080600101915050610202565b5060008090505b84518110156102e95784818151811061028e57fe5b602001015160f81c60f81b8383815181106102a557fe5b60200101907effffffffffffffffffffffffffffffffffffffffffffffffffffffffffffff1916908160001a90535081806001019250508080600101915050610279565b5081955050505050509291505056fea165627a7a723058209679b4648a8bd427d559d312b5159edcf10a08ef51f62ca4ff404ae6ac0e8a560029",
  "source": "// contracts/ StringSupport.sol\npragma solidity ^0.5.0;\n\n\nlibrary StringSupport {\n\n\n  function saltedHash(uint8 randomNumber, string memory salt) public pure returns (bytes32) {\n    bytes memory bNum = new bytes(1);\n    bNum[0] = byte(randomNumber);\n\n    return keccak256(bytes(concat(string(bNum), salt)));\n    }\n\n     \n    function concat(string memory first, string memory second) internal pure returns (string memory){\n        bytes memory bFirst = bytes(first);\n        bytes memory bSecond = bytes(second);\n        string memory memStr = new string(bFirst.length + bSecond.length);\n        bytes memory result = bytes(memStr);\n        uint k = 0;\n        for (uint i = 0; i < bFirst.length; i++) {\n            result[k] = bFirst[i];\n            k++;\n        }\n        for (uint i = 0; i < bSecond.length; i++) {\n            result[k] = bSecond[i];\n            k++;\n        }\n        return string(result);\n    }\n}\n\n",
  "sourcePath": "/home/kira/github/fun-fair/blockchain/contracts/StringSupport.sol",
  "compiler": {
    "name": "solc",
    "version": "0.5.8+commit.23d335f2.Emscripten.clang"
  },
  "schemaVersion": "3.0.11",
  "updatedAt": "2019-08-01T07:35:37.948Z",
  "devdoc": {
    "methods": {}
  },
  "userdoc": {
    "methods": {}
  }
}