{
  "contractName": "GamesOnStakes",
  "abi": [
    {
      "constant": true,
      "inputs": [],
      "name": "timeout",
      "outputs": [
        {
          "name": "",
          "type": "uint16"
        }
      ],
      "payable": false,
      "stateMutability": "view",
      "type": "function"
    },
    {
      "inputs": [
        {
          "name": "givenTimeout",
          "type": "uint16"
        }
      ],
      "payable": false,
      "stateMutability": "nonpayable",
      "type": "constructor"
    },
    {
      "payable": true,
      "stateMutability": "payable",
      "type": "fallback"
    },
    {
      "anonymous": false,
      "inputs": [
        {
          "indexed": true,
          "name": "gameIdx",
          "type": "uint32"
        }
      ],
      "name": "GameCreated",
      "type": "event"
    },
    {
      "anonymous": false,
      "inputs": [
        {
          "indexed": true,
          "name": "gameIdx",
          "type": "uint32"
        }
      ],
      "name": "GameAccepted",
      "type": "event"
    },
    {
      "anonymous": false,
      "inputs": [
        {
          "indexed": true,
          "name": "gameIdx",
          "type": "uint32"
        }
      ],
      "name": "GameStarted",
      "type": "event"
    },
    {
      "anonymous": false,
      "inputs": [
        {
          "indexed": true,
          "name": "gameIdx",
          "type": "uint32"
        }
      ],
      "name": "PositionMarked",
      "type": "event"
    },
    {
      "anonymous": false,
      "inputs": [
        {
          "indexed": true,
          "name": "gameIdx",
          "type": "uint32"
        }
      ],
      "name": "GameEnded",
      "type": "event"
    },
    {
      "constant": true,
      "inputs": [],
      "name": "getOpenGames",
      "outputs": [
        {
          "name": "",
          "type": "uint32[]"
        }
      ],
      "payable": false,
      "stateMutability": "view",
      "type": "function"
    },
    {
      "constant": true,
      "inputs": [
        {
          "name": "gameIdx",
          "type": "uint32"
        }
      ],
      "name": "getGameInfo",
      "outputs": [
        {
          "name": "cells",
          "type": "uint8[9]"
        },
        {
          "name": "status",
          "type": "uint8"
        },
        {
          "name": "amount",
          "type": "uint256"
        },
        {
          "name": "nick1",
          "type": "string"
        },
        {
          "name": "nick2",
          "type": "string"
        }
      ],
      "payable": false,
      "stateMutability": "view",
      "type": "function"
    },
    {
      "constant": true,
      "inputs": [
        {
          "name": "gameIdx",
          "type": "uint32"
        }
      ],
      "name": "getGameTimestamps",
      "outputs": [
        {
          "name": "lastTransaction1",
          "type": "uint256"
        },
        {
          "name": "lastTransaction2",
          "type": "uint256"
        }
      ],
      "payable": false,
      "stateMutability": "view",
      "type": "function"
    },
    {
      "constant": true,
      "inputs": [
        {
          "name": "gameIdx",
          "type": "uint32"
        }
      ],
      "name": "getGamePlayers",
      "outputs": [
        {
          "name": "player1",
          "type": "address"
        },
        {
          "name": "player2",
          "type": "address"
        }
      ],
      "payable": false,
      "stateMutability": "view",
      "type": "function"
    },
    {
      "constant": false,
      "inputs": [
        {
          "name": "randomNumberHash",
          "type": "bytes32"
        },
        {
          "name": "nick",
          "type": "string"
        }
      ],
      "name": "createGame",
      "outputs": [
        {
          "name": "gameIdx",
          "type": "uint32"
        }
      ],
      "payable": true,
      "stateMutability": "payable",
      "type": "function"
    },
    {
      "constant": false,
      "inputs": [
        {
          "name": "gameIdx",
          "type": "uint32"
        },
        {
          "name": "randomNumber",
          "type": "uint8"
        },
        {
          "name": "nick",
          "type": "string"
        }
      ],
      "name": "acceptGame",
      "outputs": [],
      "payable": true,
      "stateMutability": "payable",
      "type": "function"
    },
    {
      "constant": false,
      "inputs": [
        {
          "name": "gameIdx",
          "type": "uint32"
        },
        {
          "name": "revealedRandomNumber",
          "type": "uint8"
        },
        {
          "name": "revealedSalt",
          "type": "string"
        }
      ],
      "name": "confirmGame",
      "outputs": [],
      "payable": false,
      "stateMutability": "nonpayable",
      "type": "function"
    },
    {
      "constant": false,
      "inputs": [
        {
          "name": "gameIdx",
          "type": "uint32"
        },
        {
          "name": "cell",
          "type": "uint8"
        }
      ],
      "name": "markPosition",
      "outputs": [],
      "payable": false,
      "stateMutability": "nonpayable",
      "type": "function"
    },
    {
      "constant": false,
      "inputs": [
        {
          "name": "gameIdx",
          "type": "uint32"
        }
      ],
      "name": "withdraw",
      "outputs": [],
      "payable": false,
      "stateMutability": "nonpayable",
      "type": "function"
    },
    {
      "constant": true,
      "inputs": [
        {
          "name": "randomNumber",
          "type": "uint8"
        },
        {
          "name": "salt",
          "type": "string"
        }
      ],
      "name": "saltedHash",
      "outputs": [
        {
          "name": "",
          "type": "bytes32"
        }
      ],
      "payable": false,
      "stateMutability": "pure",
      "type": "function"
    }
  ],
  "bytecode": "0x60806040523480156200001157600080fd5b506040516020806200358a833981018060405260208110156200003357600080fd5b810190808051906020019092919050505060008161ffff1614620000745780600260046101000a81548161ffff021916908361ffff16021790555062000094565b610258600260046101000a81548161ffff021916908361ffff1602179055505b506134e580620000a56000396000f3fe60806040526004361061009c5760003560e01c806370dea79a1161006457806370dea79a14610464578063848a235114610497578063a97d07b014610600578063aa9224cd146106d8578063b60d0e9b14610719578063e75d7e3e146107675761009c565b80630cc99ca2146100a1578063227193051461015557806343b95d7b1461023a578063620b478d1461031f5780636474c5b81461037b575b600080fd5b3480156100ad57600080fd5b506100e0600480360360208110156100c457600080fd5b81019080803563ffffffff1690602001909291905050506107d3565b604051808373ffffffffffffffffffffffffffffffffffffffff1673ffffffffffffffffffffffffffffffffffffffff1681526020018273ffffffffffffffffffffffffffffffffffffffff1673ffffffffffffffffffffffffffffffffffffffff1681526020019250505060405180910390f35b6102186004803603604081101561016b57600080fd5b81019080803590602001909291908035906020019064010000000081111561019257600080fd5b8201836020820111156101a457600080fd5b803590602001918460018302840111640100000000831117156101c657600080fd5b91908080601f016020809104026020016040519081016040528093929190818152602001838380828437600081840152601f19601f82011690508083019250505050505050919291929050505061087f565b604051808263ffffffff1663ffffffff16815260200191505060405180910390f35b34801561024657600080fd5b5061031d6004803603606081101561025d57600080fd5b81019080803563ffffffff169060200190929190803560ff1690602001909291908035906020019064010000000081111561029757600080fd5b8201836020820111156102a957600080fd5b803590602001918460018302840111640100000000831117156102cb57600080fd5b91908080601f016020809104026020016040519081016040528093929190818152602001838380828437600081840152601f19601f820116905080830192505050505050509192919290505050610b49565b005b34801561032b57600080fd5b5061035e6004803603602081101561034257600080fd5b81019080803563ffffffff169060200190929190505050610e98565b604051808381526020018281526020019250505060405180910390f35b34801561038757600080fd5b5061044e6004803603604081101561039e57600080fd5b81019080803560ff169060200190929190803590602001906401000000008111156103c857600080fd5b8201836020820111156103da57600080fd5b803590602001918460018302840111640100000000831117156103fc57600080fd5b91908080601f016020809104026020016040519081016040528093929190818152602001838380828437600081840152601f19601f820116905080830192505050505050509192919290505050610f04565b6040518082815260200191505060405180910390f35b34801561047057600080fd5b5061047961100b565b604051808261ffff1661ffff16815260200191505060405180910390f35b3480156104a357600080fd5b506104d6600480360360208110156104ba57600080fd5b81019080803563ffffffff16906020019092919050505061101f565b6040518086600960200280838360005b838110156105015780820151818401526020810190506104e6565b505050509050018560ff1660ff1681526020018481526020018060200180602001838103835285818151815260200191508051906020019080838360005b8381101561055a57808201518184015260208101905061053f565b50505050905090810190601f1680156105875780820380516001836020036101000a031916815260200191505b50838103825284818151815260200191508051906020019080838360005b838110156105c05780820151818401526020810190506105a5565b50505050905090810190601f1680156105ed5780820380516001836020036101000a031916815260200191505b5097505050505050505060405180910390f35b6106d66004803603606081101561061657600080fd5b81019080803563ffffffff169060200190929190803560ff1690602001909291908035906020019064010000000081111561065057600080fd5b82018360208201111561066257600080fd5b8035906020019184600183028401116401000000008311171561068457600080fd5b91908080601f016020809104026020016040519081016040528093929190818152602001838380828437600081840152601f19601f8201169050808301925050505050505091929192905050506112b0565b005b3480156106e457600080fd5b50610717600480360360208110156106fb57600080fd5b81019080803563ffffffff1690602001909291905050506116c6565b005b34801561072557600080fd5b506107656004803603604081101561073c57600080fd5b81019080803563ffffffff169060200190929190803560ff169060200190929190505050612776565b005b34801561077357600080fd5b5061077c61329f565b6040518080602001828103825283818151815260200191508051906020019060200280838360005b838110156107bf5780820151818401526020810190506107a4565b505050509050019250505060405180910390f35b600080600160008463ffffffff1663ffffffff16815260200190815260200160002060040160006002811061080457fe5b0160009054906101000a900473ffffffffffffffffffffffffffffffffffffffff16600160008563ffffffff1663ffffffff16815260200190815260200160002060040160016002811061085457fe5b0160009054906101000a900473ffffffffffffffffffffffffffffffffffffffff1691509150915091565b60008063ffffffff16600260009054906101000a900463ffffffff1663ffffffff16116108ab57600080fd5b60008054905060016000600260009054906101000a900463ffffffff1663ffffffff1663ffffffff16815260200190815260200160002060000160006101000a81548163ffffffff021916908363ffffffff1602179055508260016000600260009054906101000a900463ffffffff1663ffffffff1663ffffffff168152602001908152602001600020600b01819055503460016000600260009054906101000a900463ffffffff1663ffffffff1663ffffffff168152602001908152602001600020600301819055508160016000600260009054906101000a900463ffffffff1663ffffffff1663ffffffff1681526020019081526020016000206006016000600281106109b657fe5b0190805190602001906109ca929190613323565b503360016000600260009054906101000a900463ffffffff1663ffffffff1663ffffffff168152602001908152602001600020600401600060028110610a0c57fe5b0160006101000a81548173ffffffffffffffffffffffffffffffffffffffff021916908373ffffffffffffffffffffffffffffffffffffffff1602179055506000600260009054906101000a900463ffffffff16908060018154018082558091505090600182039060005260206000209060089182820401919006600402909192909190916101000a81548163ffffffff021916908363ffffffff16021790555050600260009054906101000a900463ffffffff169050600260009054906101000a900463ffffffff1663ffffffff167fe086303ca1b48642b0b5ba69da2571f5e80c0316d829fef02a512f986d2dd97d60405160405180910390a26002600081819054906101000a900463ffffffff168092919060010191906101000a81548163ffffffff021916908363ffffffff1602179055505092915050565b600260009054906101000a900463ffffffff1663ffffffff168363ffffffff1610610b7357600080fd5b3373ffffffffffffffffffffffffffffffffffffffff16600160008563ffffffff1663ffffffff168152602001908152602001600020600401600060028110610bb857fe5b0160009054906101000a900473ffffffffffffffffffffffffffffffffffffffff1673ffffffffffffffffffffffffffffffffffffffff1614610bfa57600080fd5b600073ffffffffffffffffffffffffffffffffffffffff16600160008563ffffffff1663ffffffff168152602001908152602001600020600401600160028110610c4057fe5b0160009054906101000a900473ffffffffffffffffffffffffffffffffffffffff1673ffffffffffffffffffffffffffffffffffffffff161415610c8357600080fd5b6000600160008563ffffffff1663ffffffff16815260200190815260200160002060020160009054906101000a900460ff1660ff1614610cc257600080fd5b6000610cce8383610f04565b9050600160008563ffffffff1663ffffffff168152602001908152602001600020600b01548114610d6e57600c600160008663ffffffff1663ffffffff16815260200190815260200160002060020160006101000a81548160ff021916908360ff1602179055508363ffffffff167f03062237e6595ec25417489012bbe42a5d38814b6f0a918f13c18988b580b60060405160405180910390a250610e93565b42600160008663ffffffff1663ffffffff168152602001908152602001600020600801600060028110610d9d57fe5b0181905550600080600160008763ffffffff1663ffffffff168152602001908152602001600020600c0160009054906101000a900460ff1685181660ff161415610e215760018060008663ffffffff1663ffffffff16815260200190815260200160002060020160006101000a81548160ff021916908360ff160217905550610e91565b6002600160008663ffffffff1663ffffffff16815260200190815260200160002060020160006101000a81548160ff021916908360ff1602179055508363ffffffff167fe6aebc56b3bafc90ff9fcf8f838e304f2b308c7b3cc63fde56fb1806a03968fe60405160405180910390a25b505b505050565b600080600160008463ffffffff1663ffffffff168152602001908152602001600020600801600060028110610ec957fe5b0154600160008563ffffffff1663ffffffff168152602001908152602001600020600801600160028110610ef957fe5b015491509150915091565b600073__StringSupport_________________________636474c5b884846040518363ffffffff1660e01b8152600401808360ff1660ff16815260200180602001828103825283818151815260200191508051906020019080838360005b83811015610f7d578082015181840152602081019050610f62565b50505050905090810190601f168015610faa5780820380516001836020036101000a031916815260200191505b50935050505060206040518083038186803b158015610fc857600080fd5b505af4158015610fdc573d6000803e3d6000fd5b505050506040513d6020811015610ff257600080fd5b8101908080519060200190929190505050905092915050565b600260049054906101000a900461ffff1681565b6110276133a3565b600080606080600160008763ffffffff1663ffffffff168152602001908152602001600020600101600160008863ffffffff1663ffffffff16815260200190815260200160002060020160009054906101000a900460ff16600160008963ffffffff1663ffffffff16815260200190815260200160002060030154600160008a63ffffffff1663ffffffff1681526020019081526020016000206006016000600281106110d057fe5b01600160008b63ffffffff1663ffffffff1681526020019081526020016000206006016001600281106110ff57fe5b018460098060200260405190810160405280929190826009801561115e576020028201916000905b82829054906101000a900460ff1660ff16815260200190600101906020826000010492830192600103820291508084116111275790505b50505050509450818054600181600116156101000203166002900480601f0160208091040260200160405190810160405280929190818152602001828054600181600116156101000203166002900480156111fa5780601f106111cf576101008083540402835291602001916111fa565b820191906000526020600020905b8154815290600101906020018083116111dd57829003601f168201915b50505050509150808054600181600116156101000203166002900480601f0160208091040260200160405190810160405280929190818152602001828054600181600116156101000203166002900480156112965780601f1061126b57610100808354040283529160200191611296565b820191906000526020600020905b81548152906001019060200180831161127957829003601f168201915b505050505090509450945094509450945091939590929450565b600260009054906101000a900463ffffffff1663ffffffff168363ffffffff16106112da57600080fd5b600073ffffffffffffffffffffffffffffffffffffffff16600160008563ffffffff1663ffffffff16815260200190815260200160002060040160006002811061132057fe5b0160009054906101000a900473ffffffffffffffffffffffffffffffffffffffff1673ffffffffffffffffffffffffffffffffffffffff16141561136357600080fd5b600160008463ffffffff1663ffffffff16815260200190815260200160002060030154341461139157600080fd5b600073ffffffffffffffffffffffffffffffffffffffff16600160008563ffffffff1663ffffffff1681526020019081526020016000206004016001600281106113d757fe5b0160009054906101000a900473ffffffffffffffffffffffffffffffffffffffff1673ffffffffffffffffffffffffffffffffffffffff161461141957600080fd5b6000600160008563ffffffff1663ffffffff16815260200190815260200160002060020160009054906101000a900460ff1660ff161461145857600080fd5b81600160008563ffffffff1663ffffffff168152602001908152602001600020600c0160006101000a81548160ff021916908360ff16021790555080600160008563ffffffff1663ffffffff1681526020019081526020016000206006016001600281106114c257fe5b0190805190602001906114d6929190613323565b5033600160008563ffffffff1663ffffffff16815260200190815260200160002060040160016002811061150657fe5b0160006101000a81548173ffffffffffffffffffffffffffffffffffffffff021916908373ffffffffffffffffffffffffffffffffffffffff16021790555042600160008563ffffffff1663ffffffff16815260200190815260200160002060080160016002811061157457fe5b01819055508263ffffffff167f14badac9165592fee02ed823bed7496693740911a7624d59908014ecd4736ab760405160405180910390a26000600160008563ffffffff1663ffffffff16815260200190815260200160002060000160009054906101000a900463ffffffff169050600080600160008054905003815481106115f957fe5b90600052602060002090600891828204019190066004029054906101000a900463ffffffff1690508060008363ffffffff168154811061163557fe5b90600052602060002090600891828204019190066004026101000a81548163ffffffff021916908363ffffffff16021790555081600160008363ffffffff1663ffffffff16815260200190815260200160002060000160006101000a81548163ffffffff021916908363ffffffff16021790555060008054809190600190036116be91906133c6565b505050505050565b600260009054906101000a900463ffffffff1663ffffffff168163ffffffff16106116f057600080fd5b6000600160008363ffffffff1663ffffffff1681526020019081526020016000206003015411611788576040517f08c379a000000000000000000000000000000000000000000000000000000000815260040180806020018281038252601b8152602001807f5468652062657420616d6f756e742063616e206e6f742062652030000000000081525060200191505060405180910390fd5b6000600160008363ffffffff1663ffffffff16815260200190815260200160002060020160009054906101000a900460ff16905060008160ff161415611c70573373ffffffffffffffffffffffffffffffffffffffff16600160008463ffffffff1663ffffffff16815260200190815260200160002060040160006002811061180d57fe5b0160009054906101000a900473ffffffffffffffffffffffffffffffffffffffff1673ffffffffffffffffffffffffffffffffffffffff16146118b8576040517f08c379a00000000000000000000000000000000000000000000000000000000081526004018080602001828103825260108152602001807f5468652047616d652063726561746f720000000000000000000000000000000081525060200191505060405180910390fd5b600073ffffffffffffffffffffffffffffffffffffffff16600160008463ffffffff1663ffffffff1681526020019081526020016000206004016001600281106118fe57fe5b0160009054906101000a900473ffffffffffffffffffffffffffffffffffffffff1673ffffffffffffffffffffffffffffffffffffffff16146119a9576040517f08c379a000000000000000000000000000000000000000000000000000000000815260040180806020018281038252600d8152602001807f546865206775657374207462640000000000000000000000000000000000000081525060200191505060405180910390fd5b600260049054906101000a900461ffff1661ffff16600160008463ffffffff1663ffffffff1681526020019081526020016000206008016000600281106119ec57fe5b0154420311611a63576040517f08c379a00000000000000000000000000000000000000000000000000000000081526004018080602001828103825260138152602001807f47616d65206973207374696c6c20616c6976650000000000000000000000000081525060200191505060405180910390fd5b60018060008463ffffffff1663ffffffff168152602001908152602001600020600a01600060028110611a9257fe5b602091828204019190066101000a81548160ff021916908315150217905550600a600160008463ffffffff1663ffffffff16815260200190815260200160002060020160006101000a81548160ff021916908360ff1602179055503373ffffffffffffffffffffffffffffffffffffffff166108fc600160008563ffffffff1663ffffffff168152602001908152602001600020600301549081150290604051600060405180830381858888f19350505050158015611b55573d6000803e3d6000fd5b506000600160008463ffffffff1663ffffffff16815260200190815260200160002060000160009054906101000a900463ffffffff16905060008060016000805490500381548110611ba357fe5b90600052602060002090600891828204019190066004029054906101000a900463ffffffff1690508060008363ffffffff1681548110611bdf57fe5b90600052602060002090600891828204019190066004026101000a81548163ffffffff021916908363ffffffff16021790555081600160008363ffffffff1663ffffffff16815260200190815260200160002060000160006101000a81548163ffffffff021916908363ffffffff1602179055506000805480919060019003611c6891906133c6565b505050612772565b60018160ff161415611eb8573373ffffffffffffffffffffffffffffffffffffffff16600160008463ffffffff1663ffffffff168152602001908152602001600020600401600160028110611cc157fe5b0160009054906101000a900473ffffffffffffffffffffffffffffffffffffffff1673ffffffffffffffffffffffffffffffffffffffff1614611d0357600080fd5b600260049054906101000a900461ffff1661ffff16600160008463ffffffff1663ffffffff168152602001908152602001600020600801600060028110611d4657fe5b0154420311611dbd576040517f08c379a00000000000000000000000000000000000000000000000000000000081526004018080602001828103825260138152602001807f47616d65206973207374696c6c20616c6976650000000000000000000000000081525060200191505060405180910390fd5b60018060008463ffffffff1663ffffffff168152602001908152602001600020600a01600160028110611dec57fe5b602091828204019190066101000a81548160ff021916908315150217905550600c600160008463ffffffff1663ffffffff16815260200190815260200160002060020160006101000a81548160ff021916908360ff1602179055503373ffffffffffffffffffffffffffffffffffffffff166108fc6002600160008663ffffffff1663ffffffff16815260200190815260200160002060030154029081150290604051600060405180830381858888f19350505050158015611eb2573d6000803e3d6000fd5b50612771565b60028160ff161415612100573373ffffffffffffffffffffffffffffffffffffffff16600160008463ffffffff1663ffffffff168152602001908152602001600020600401600060028110611f0957fe5b0160009054906101000a900473ffffffffffffffffffffffffffffffffffffffff1673ffffffffffffffffffffffffffffffffffffffff1614611f4b57600080fd5b600260049054906101000a900461ffff1661ffff16600160008463ffffffff1663ffffffff168152602001908152602001600020600801600060028110611f8e57fe5b0154420311612005576040517f08c379a00000000000000000000000000000000000000000000000000000000081526004018080602001828103825260138152602001807f47616d65206973207374696c6c20616c6976650000000000000000000000000081525060200191505060405180910390fd5b60018060008463ffffffff1663ffffffff168152602001908152602001600020600a0160016002811061203457fe5b602091828204019190066101000a81548160ff021916908315150217905550600b600160008463ffffffff1663ffffffff16815260200190815260200160002060020160006101000a81548160ff021916908360ff1602179055503373ffffffffffffffffffffffffffffffffffffffff166108fc6002600160008663ffffffff1663ffffffff16815260200190815260200160002060030154029081150290604051600060405180830381858888f193505050501580156120fa573d6000803e3d6000fd5b50612770565b600a8160ff161415612428573373ffffffffffffffffffffffffffffffffffffffff16600160008463ffffffff1663ffffffff16815260200190815260200160002060040160006002811061215157fe5b0160009054906101000a900473ffffffffffffffffffffffffffffffffffffffff1673ffffffffffffffffffffffffffffffffffffffff16141561229957600160008363ffffffff1663ffffffff168152602001908152602001600020600a016000600281106121bd57fe5b602091828204019190069054906101000a900460ff16156121dd57600080fd5b60018060008463ffffffff1663ffffffff168152602001908152602001600020600a0160006002811061220c57fe5b602091828204019190066101000a81548160ff0219169083151502179055503373ffffffffffffffffffffffffffffffffffffffff166108fc600160008563ffffffff1663ffffffff168152602001908152602001600020600301549081150290604051600060405180830381858888f19350505050158015612293573d6000803e3d6000fd5b50612423565b3373ffffffffffffffffffffffffffffffffffffffff16600160008463ffffffff1663ffffffff1681526020019081526020016000206004016001600281106122de57fe5b0160009054906101000a900473ffffffffffffffffffffffffffffffffffffffff1673ffffffffffffffffffffffffffffffffffffffff16141561242257600160008363ffffffff1663ffffffff168152602001908152602001600020600a0160016002811061234a57fe5b602091828204019190069054906101000a900460ff161561236a57600080fd5b60018060008463ffffffff1663ffffffff168152602001908152602001600020600a0160016002811061239957fe5b602091828204019190066101000a81548160ff0219169083151502179055503373ffffffffffffffffffffffffffffffffffffffff166108fc600160008563ffffffff1663ffffffff168152602001908152602001600020600301549081150290604051600060405180830381858888f19350505050158015612420573d6000803e3d6000fd5b505b5b61276f565b600b8160ff1614156125c8573373ffffffffffffffffffffffffffffffffffffffff16600160008463ffffffff1663ffffffff16815260200190815260200160002060040160006002811061247957fe5b0160009054906101000a900473ffffffffffffffffffffffffffffffffffffffff1673ffffffffffffffffffffffffffffffffffffffff16146124bb57600080fd5b600160008363ffffffff1663ffffffff168152602001908152602001600020600a016000600281106124e957fe5b602091828204019190069054906101000a900460ff161561250957600080fd5b60018060008463ffffffff1663ffffffff168152602001908152602001600020600a0160006002811061253857fe5b602091828204019190066101000a81548160ff0219169083151502179055503373ffffffffffffffffffffffffffffffffffffffff166108fc6002600160008663ffffffff1663ffffffff16815260200190815260200160002060030154029081150290604051600060405180830381858888f193505050501580156125c2573d6000803e3d6000fd5b5061276e565b600c8160ff161415612768573373ffffffffffffffffffffffffffffffffffffffff16600160008463ffffffff1663ffffffff16815260200190815260200160002060040160016002811061261957fe5b0160009054906101000a900473ffffffffffffffffffffffffffffffffffffffff1673ffffffffffffffffffffffffffffffffffffffff161461265b57600080fd5b600160008363ffffffff1663ffffffff168152602001908152602001600020600a0160016002811061268957fe5b602091828204019190069054906101000a900460ff16156126a957600080fd5b60018060008463ffffffff1663ffffffff168152602001908152602001600020600a016001600281106126d857fe5b602091828204019190066101000a81548160ff0219169083151502179055503373ffffffffffffffffffffffffffffffffffffffff166108fc6002600160008663ffffffff1663ffffffff16815260200190815260200160002060030154029081150290604051600060405180830381858888f19350505050158015612762573d6000803e3d6000fd5b5061276d565b600080fd5b5b5b5b5b5b5050565b600260009054906101000a900463ffffffff1663ffffffff168263ffffffff16106127a057600080fd5b60088160ff1611156127fd576040517f08c379a00000000000000000000000000000000000000000000000000000000081526004018080602001828103825260418152602001806134796041913960600191505060405180910390fd5b6000600160008463ffffffff1663ffffffff16815260200190815260200160002060010190506000818360ff166009811061283457fe5b602091828204019190069054906101000a900460ff1660ff16146128c0576040517f08c379a00000000000000000000000000000000000000000000000000000000081526004018080602001828103825260198152602001807f4e6f20506c61796572206861732073746172746564207965740000000000000081525060200191505060405180910390fd5b60018060008563ffffffff1663ffffffff16815260200190815260200160002060020160009054906101000a900460ff1660ff1614156129d2573373ffffffffffffffffffffffffffffffffffffffff16600160008563ffffffff1663ffffffff16815260200190815260200160002060040160006002811061293f57fe5b0160009054906101000a900473ffffffffffffffffffffffffffffffffffffffff1673ffffffffffffffffffffffffffffffffffffffff16146129cd576040517f08c379a000000000000000000000000000000000000000000000000000000000815260040180806020018281038252602d815260200180613426602d913960400191505060405180910390fd5b612aeb565b6002600160008563ffffffff1663ffffffff16815260200190815260200160002060020160009054906101000a900460ff1660ff161415612ae5573373ffffffffffffffffffffffffffffffffffffffff16600160008563ffffffff1663ffffffff168152602001908152602001600020600401600160028110612a5257fe5b0160009054906101000a900473ffffffffffffffffffffffffffffffffffffffff1673ffffffffffffffffffffffffffffffffffffffff1614612ae0576040517f08c379a00000000000000000000000000000000000000000000000000000000081526004018080602001828103825260268152602001806134536026913960400191505060405180910390fd5b612aea565b600080fd5b5b8263ffffffff167fc8ca200b7b7de6800e78d298d7683d619cb11916108a189d62239ccd948ed3a160405160405180910390a2600081600260098110612b2d57fe5b602091828204019190069054906101000a900460ff1682600160098110612b5057fe5b602091828204019190069054906101000a900460ff1683600060098110612b7357fe5b602091828204019190069054906101000a900460ff16161660ff16141580612c095750600081600560098110612ba557fe5b602091828204019190069054906101000a900460ff1682600460098110612bc857fe5b602091828204019190069054906101000a900460ff1683600360098110612beb57fe5b602091828204019190069054906101000a900460ff16161660ff1614155b80612c825750600081600860098110612c1e57fe5b602091828204019190069054906101000a900460ff1682600760098110612c4157fe5b602091828204019190069054906101000a900460ff1683600660098110612c6457fe5b602091828204019190069054906101000a900460ff16161660ff1614155b80612cfb5750600081600660098110612c9757fe5b602091828204019190069054906101000a900460ff1682600360098110612cba57fe5b602091828204019190069054906101000a900460ff1683600060098110612cdd57fe5b602091828204019190069054906101000a900460ff16161660ff1614155b80612d745750600081600760098110612d1057fe5b602091828204019190069054906101000a900460ff1682600460098110612d3357fe5b602091828204019190069054906101000a900460ff1683600160098110612d5657fe5b602091828204019190069054906101000a900460ff16161660ff1614155b80612ded5750600081600860098110612d8957fe5b602091828204019190069054906101000a900460ff1682600560098110612dac57fe5b602091828204019190069054906101000a900460ff1683600260098110612dcf57fe5b602091828204019190069054906101000a900460ff16161660ff1614155b80612e665750600081600860098110612e0257fe5b602091828204019190069054906101000a900460ff1682600460098110612e2557fe5b602091828204019190069054906101000a900460ff1683600060098110612e4857fe5b602091828204019190069054906101000a900460ff16161660ff1614155b80612edf5750600081600660098110612e7b57fe5b602091828204019190069054906101000a900460ff1682600460098110612e9e57fe5b602091828204019190069054906101000a900460ff1683600260098110612ec157fe5b602091828204019190069054906101000a900460ff16161660ff1614155b15612f7e57808260ff1660098110612ef357fe5b602091828204019190069054906101000a900460ff16600a01600160008563ffffffff1663ffffffff16815260200190815260200160002060020160006101000a81548160ff021916908360ff1602179055508263ffffffff167f03062237e6595ec25417489012bbe42a5d38814b6f0a918f13c18988b580b60060405160405180910390a261329a565b600081600060098110612f8d57fe5b602091828204019190069054906101000a900460ff1660ff1614158015612fda5750600081600160098110612fbe57fe5b602091828204019190069054906101000a900460ff1660ff1614155b801561300c5750600081600260098110612ff057fe5b602091828204019190069054906101000a900460ff1660ff1614155b801561303e575060008160036009811061302257fe5b602091828204019190069054906101000a900460ff1660ff1614155b8015613070575060008160046009811061305457fe5b602091828204019190069054906101000a900460ff1660ff1614155b80156130a2575060008160056009811061308657fe5b602091828204019190069054906101000a900460ff1660ff1614155b80156130d457506000816006600981106130b857fe5b602091828204019190069054906101000a900460ff1660ff1614155b801561310657506000816007600981106130ea57fe5b602091828204019190069054906101000a900460ff1660ff1614155b8015613138575060008160086009811061311c57fe5b602091828204019190069054906101000a900460ff1660ff1614155b156131b157600a600160008563ffffffff1663ffffffff16815260200190815260200160002060020160006101000a81548160ff021916908360ff1602179055508263ffffffff167f03062237e6595ec25417489012bbe42a5d38814b6f0a918f13c18988b580b60060405160405180910390a2613299565b6001818360ff16600981106131c257fe5b602091828204019190069054906101000a900460ff1660ff161415613222576002600160008563ffffffff1663ffffffff16815260200190815260200160002060020160006101000a81548160ff021916908360ff160217905550613298565b6002818360ff166009811061323357fe5b602091828204019190069054906101000a900460ff1660ff1614156132925760018060008563ffffffff1663ffffffff16815260200190815260200160002060020160006101000a81548160ff021916908360ff160217905550613297565b600080fd5b5b5b5b505050565b6060600080548060200260200160405190810160405280929190818152602001828054801561331957602002820191906000526020600020906000905b82829054906101000a900463ffffffff1663ffffffff16815260200190600401906020826003010492830192600103820291508084116132dc5790505b5050505050905090565b828054600181600116156101000203166002900490600052602060002090601f016020900481019282601f1061336457805160ff1916838001178555613392565b82800160010185558215613392579182015b82811115613391578251825591602001919060010190613376565b5b50905061339f9190613400565b5090565b604051806101200160405280600990602082028038833980820191505090505090565b8154818355818111156133fb5760070160089004816007016008900483600052602060002091820191016133fa9190613400565b5b505050565b61342291905b8082111561341e576000816000905550600101613406565b5090565b9056fe506f736974696f6e206d61726b6564212047616d652063726561746f722069732074686520706c617965722031506f736974696f6e206d61726b6564212047756573742069732074686520706c61796572203154686520706172616d65746572206d75737420636f6e7461696e20612076616c7565206c657373207468616e206d61782063656c6c2076616c7565206c696d6974a165627a7a72305820c4589b0d4bf431f5fcfa59596c162e0f1a132018253faaa4d1a26979d062f98a0029",
  "source": "pragma solidity ^0.5.0;\n\n ///@title fun.fair _Consensys-bootcamp-final-project\n ///@author Sachin Mittal\n ///@notice Contract is built following the smart contract design pattern\n ///@dev StringSupport library is used for salted hash (commitment scheme)\n\n import \"./StringSupport.sol\";\n\ncontract GamesOnStakes {\n\n///@title Contract properties - Monolithic, experimental, efficient (Use of library)\n///@dev For any queries, generate an issue, or email at \" \"\n\n\n// * Ethereum smart contract, deployed at \"given address\". */\n\n/// *** STATE VARIABLES \n\n\nstruct Game \n  {\n\n    \n    uint32 index;            // position in openGames[]\n    uint8[9] cells;  \n\n    // [123 | 456 | 789] containing [0 => nobody, 1 => X, 2 => O]    \n\n    // 0 => not started, 1 => player 1, 2 => player 2\n    // 10 => draw, 11 => player 1 wins, 12 => player 2 wins\n\n    uint8 status;                   \n    uint amount;                       \n\n    address[2] players;                 // Player's array\n    string[2] nicks;                    \n    uint[2] lastTransactions;           \n    bool[2] withdrawn;                  \n\n    bytes32 creatorHash;                   \n    uint8 guestRandomNumber;\n  }\n\n    uint32[] openGames;                    // list of active games' id's\n    mapping(uint32 => Game) gamesData;     // data containers\n\n    uint32 nextGameIdx;\n    uint16 public timeout;                  // Game Timeout\n\n    // TODO: Apply limit!\n\n    constructor(uint16 givenTimeout) public {\n      if(givenTimeout!= 0){\n          timeout = givenTimeout;    \n      }\n      else{\n        timeout = 10 minutes;\n      }\n    }\n\n    // EVENTS\n\n    event GameCreated(uint32 indexed gameIdx);\n    event GameAccepted(uint32 indexed gameIdx);\n    event GameStarted(uint32 indexed gameIdx);\n    \n    event PositionMarked(uint32 indexed gameIdx);\n    event GameEnded(uint32 indexed gameIdx);\n\n\n    // Member Functions\n\n    //Callable \n\n    function getOpenGames() \n    public \n    view \n    returns (uint32[] memory){\n      return openGames;\n    }\n\n\n    function getGameInfo(uint32 gameIdx)\n    public\n    view \n    returns (uint8[9] memory cells, uint8 status, uint amount, string memory nick1, string memory nick2) {\n        return (\n\n        gamesData[gameIdx].cells,\n        gamesData[gameIdx].status,\n        gamesData[gameIdx].amount,\n        gamesData[gameIdx].nicks[0],\n        gamesData[gameIdx].nicks[1]\n        );\n    }\n\n    function getGameTimestamps(uint32 gameIdx) \n    public \n    view \n  returns (uint lastTransaction1, uint lastTransaction2) {\n      return (\n          gamesData[gameIdx].lastTransactions[0],\n          gamesData[gameIdx].lastTransactions[1]\n      );\n  }\n\n    function getGamePlayers(uint32 gameIdx) \n    public \n    view \n    returns (address player1, address player2) {\n        return (\n            gamesData[gameIdx].players[0],\n            gamesData[gameIdx].players[1]\n        );\n    }\n\n\n    // Operations\n\n   function createGame(bytes32 randomNumberHash, string memory nick) \n   public \n   payable \n   returns (uint32 gameIdx) {\n     require(nextGameIdx > gameIdx);\n\n      gamesData[nextGameIdx].index = uint32(openGames.length);\n      gamesData[nextGameIdx].creatorHash = randomNumberHash;\n      gamesData[nextGameIdx].amount = msg.value;\n      gamesData[nextGameIdx].nicks[0] = nick;\n      gamesData[nextGameIdx].players[0] = msg.sender;\n      openGames.push(nextGameIdx);\n\n      gameIdx = nextGameIdx;\n      emit GameCreated(nextGameIdx);\n\n      nextGameIdx++;\n  }\n\n\n    function acceptGame(uint32 gameIdx, uint8 randomNumber, string memory nick) \n    public \n    payable {\n    \n    require(gameIdx < nextGameIdx);\n    require(gamesData[gameIdx].players[0] != address(0x0));\n    require(msg.value == gamesData[gameIdx].amount);\n    require(gamesData[gameIdx].players[1] == address(0x0));\n    require(gamesData[gameIdx].status == 0);\n\n    gamesData[gameIdx].guestRandomNumber = randomNumber;\n    gamesData[gameIdx].nicks[1] = nick;\n    gamesData[gameIdx].players[1] = msg.sender;\n    gamesData[gameIdx].lastTransactions[1] = now;\n\n    emit GameAccepted(gameIdx);\n\n    // Remove Accepted game from the openGames list\n    uint32 idxToDelete = uint32(gamesData[gameIdx].index);\n        uint32 lastOpenGameIdx = openGames[openGames.length - 1];\n        openGames[idxToDelete] = lastOpenGameIdx;\n        gamesData[lastOpenGameIdx].index = idxToDelete;\n        openGames.length--;\n\n    }\n\n    function confirmGame(uint32 gameIdx, uint8 revealedRandomNumber, string memory revealedSalt) public {\n        require(gameIdx < nextGameIdx);\n        require(gamesData[gameIdx].players[0] == msg.sender);\n        require(gamesData[gameIdx].players[1] != address(0x0));\n        require(gamesData[gameIdx].status == 0);\n\n      \n        bytes32 computedHash = saltedHash(revealedRandomNumber, revealedSalt);\n        if(computedHash != gamesData[gameIdx].creatorHash){\n            gamesData[gameIdx].status = 12;\n            emit GameEnded(gameIdx);\n            return;\n        }\n\n        gamesData[gameIdx].lastTransactions[0] = now;\n\n        // Logic for deciding turns, if even-even/odd-odd, game creator will have the first chance\n        // If odd-even, guest will have the first chance - ||Define starting player||\n        if((revealedRandomNumber ^ gamesData[gameIdx].guestRandomNumber) & 0x0 == 0){\n            gamesData[gameIdx].status = 1;\n        }\n        else {\n            gamesData[gameIdx].status = 2;\n            emit GameStarted(gameIdx);\n        }\n    }\n\n\n    function markPosition(uint32 gameIdx, uint8 cell) public {\n\n        require(gameIdx < nextGameIdx);\n        require(cell<=8, \"The parameter must contain a value less than max cell value limit\");\n\n        uint8[9] storage cells = gamesData[gameIdx].cells;\n        require(cells[cell] == 0, \"No Player has started yet\");\n\n        if(gamesData[gameIdx].status == 1){\n          require(gamesData[gameIdx].players[0] == msg.sender, \"Position marked! Game creator is the player 1\");\n        }\n\n        else if(gamesData[gameIdx].status == 2){\n          require(gamesData[gameIdx].players[1] == msg.sender, \"Position marked! Guest is the player 1\");\n        }\n        else{\n          revert();\n        }\n\n        emit PositionMarked(gameIdx);\n\n        // Board indexes:\n        //    0 1 2\n        //    3 4 5\n        //    6 7 8\n\n        // Detect a winner:\n        // Winning probability in all rows, and columns\n\n        if((cells[0] & cells [1] & cells [2] != 0x0) || (cells[3] & cells [4] & cells [5] != 0x0) ||\n        (cells[6] & cells [7] & cells [8] != 0x0) || (cells[0] & cells [3] & cells [6] != 0x0) ||\n        (cells[1] & cells [4] & cells [7] != 0x0) || (cells[2] & cells [5] & cells [8] != 0x0) ||\n        (cells[0] & cells [4] & cells [8] != 0x0) || (cells[2] & cells [4] & cells [6] != 0x0)) {\n            // winner\n            gamesData[gameIdx].status = 10 + cells[cell];  // 11 or 12\n            emit GameEnded(gameIdx);\n        }\n\n        // All cells filled..! Hence, a draw\n        else if(cells[0] != 0x0 && cells[1] != 0x0 && cells[2] != 0x0 && \n            cells[3] != 0x0 && cells[4] != 0x0 && cells[5] != 0x0 && cells[6] != 0x0 && \n            cells[7] != 0x0 && cells[8] != 0x0) {\n            \n            gamesData[gameIdx].status = 10;\n            emit GameEnded(gameIdx);\n        }\n        else {\n            if(cells[cell] == 1){\n                gamesData[gameIdx].status = 2;\n            }\n            else if(cells[cell] == 2){\n                gamesData[gameIdx].status = 1;\n            }\n            else{\n              revert();\n            }\n        }\n    }    \n    \n\n    function withdraw(uint32 gameIdx) public {\n      require(gameIdx < nextGameIdx);\n      require(gamesData[gameIdx].amount > 0, \"The bet amount can not be 0\");\n\n      uint8 status = gamesData[gameIdx].status;\n\n      // Since status = 0, consider it ends in a draw\n      if(status == 0){\n        require(gamesData[gameIdx].players[0] == msg.sender, \"The Game creator\");\n        require(gamesData[gameIdx].players[1] == address(0x0), \"The guest tbd\");\n        require(now - gamesData[gameIdx].lastTransactions[0] > timeout, \"Game is still alive\" );\n\n         gamesData[gameIdx].withdrawn[0] = true;          // Amount withdrawn from the player\n         gamesData[gameIdx].status = 10;                  // consider it ended in draw\n         msg.sender.transfer(gamesData[gameIdx].amount);  // Amount transfered from player to the contract address\n        \n        // Remove this gameId from the openGames list\n        uint32 idxToDelete = uint32(gamesData[gameIdx].index);\n        uint32 lastOpenGameIdx = openGames[openGames.length - 1];\n        openGames[idxToDelete] = lastOpenGameIdx;\n        gamesData[lastOpenGameIdx].index = idxToDelete;\n        openGames.length--;\n      }\n      else if(status == 1){\n        // Player2 won the claim \n        require(gamesData[gameIdx].players[1] == msg.sender);\n        require(now - gamesData[gameIdx].lastTransactions[0] > timeout, \"Game is still alive\" );\n\n        gamesData[gameIdx].withdrawn[1] = true;\n        gamesData[gameIdx].status = 12;\n        msg.sender.transfer(gamesData[gameIdx].amount * 2);\n      }\n      else if(status == 2){\n        // Player1 won the game\n        require(gamesData[gameIdx].players[0] == msg.sender);\n        require(now - gamesData[gameIdx].lastTransactions[0] > timeout, \"Game is still alive\" );\n\n        gamesData[gameIdx].withdrawn[1] = true;\n        gamesData[gameIdx].status = 11;\n        msg.sender.transfer(gamesData[gameIdx].amount * 2);\n      }\n      else if(status == 10){\n            if(gamesData[gameIdx].players[0] == msg.sender){\n                require(!gamesData[gameIdx].withdrawn[0]);\n\n                gamesData[gameIdx].withdrawn[0] = true;\n                msg.sender.transfer(gamesData[gameIdx].amount);\n            }\n            else if(gamesData[gameIdx].players[1] == msg.sender){\n          require(!gamesData[gameIdx].withdrawn[1]);\n\n          gamesData[gameIdx].withdrawn[1] = true;\n          msg.sender.transfer(gamesData[gameIdx].amount);\n           }\n      }\n      else if(status == 11){\n          require(gamesData[gameIdx].players[0] == msg.sender);\n          require(!gamesData[gameIdx].withdrawn[0]);\n\n          gamesData[gameIdx].withdrawn[0] = true;\n          msg.sender.transfer(gamesData[gameIdx].amount * 2);\n      }\n      else if(status == 12){\n          require(gamesData[gameIdx].players[1] == msg.sender);\n          require(!gamesData[gameIdx].withdrawn[1]);\n\n          gamesData[gameIdx].withdrawn[1] = true;\n          msg.sender.transfer(gamesData[gameIdx].amount * 2);\n      }\n      else {\n          revert();\n      }\n    }\n\n   \n\n    // Imported from library - public helper function\n    function saltedHash(uint8 randomNumber, string memory salt) public pure returns (bytes32) {\n        return StringSupport.saltedHash(randomNumber, salt);\n    }\n\n    // Fallback function\n\n    function () external payable {\n        revert();\n    }\n\n}\n\n\n\n\n\n\n\n\n\n",
  "sourcePath": "/home/kira/github/fun-fair/contracts/GamesOnStakes.sol",
  "compiler": {
    "name": "solc",
    "version": "0.5.8+commit.23d335f2.Emscripten.clang"
  },
  "schemaVersion": "3.0.11",
  "updatedAt": "2019-07-24T12:17:33.190Z",
  "devdoc": {
    "methods": {}
  },
  "userdoc": {
    "methods": {}
  }
}